{"abi":[{"type":"constructor","inputs":[{"name":"_code","type":"bytes32","internalType":"bytes32"},{"name":"verifierAddr","type":"address","internalType":"address"}],"stateMutability":"payable"},{"type":"fallback","stateMutability":"payable"},{"type":"receive","stateMutability":"payable"},{"type":"function","name":"code","inputs":[],"outputs":[{"name":"","type":"bytes32","internalType":"bytes32"}],"stateMutability":"view"},{"type":"function","name":"verifier","inputs":[],"outputs":[{"name":"","type":"address","internalType":"contract Groth16Verifier"}],"stateMutability":"view"},{"type":"function","name":"withdraw","inputs":[{"name":"to","type":"address","internalType":"address"},{"name":"amount","type":"uint256","internalType":"uint256"},{"name":"proof","type":"tuple","internalType":"struct StealthWallet.OwnershipProof","components":[{"name":"piA","type":"uint256[2]","internalType":"uint256[2]"},{"name":"piB","type":"uint256[2][2]","internalType":"uint256[2][2]"},{"name":"piC","type":"uint256[2]","internalType":"uint256[2]"}]}],"outputs":[{"name":"","type":"bool","internalType":"bool"}],"stateMutability":"nonpayable"},{"type":"error","name":"StealthWallet__AmountExceedsBalance","inputs":[]},{"type":"error","name":"StealthWallet__InvalidProof","inputs":[]},{"type":"error","name":"StealthWallet__WithdrawFailed","inputs":[]},{"type":"error","name":"StealthWallet__ZeroRecipientAddress","inputs":[]},{"type":"error","name":"StealthWallet__ZeroVerifierAddress","inputs":[]}],"bytecode":{"object":"0x60c06040526040516104a93803806104a983398101604081905261002291610060565b60808290526001600160a01b03811661004e576040516327f4c8f960e11b815260040160405180910390fd5b6001600160a01b031660a0525061009d565b6000806040838503121561007357600080fd5b825160208401519092506001600160a01b038116811461009257600080fd5b809150509250929050565b60805160a0516103db6100ce60003960008181609701526101960152600081816050015261015601526103db6000f3fe6080604052600436106100355760003560e01c806324c12bf61461003e5780632b7ac3f314610085578063de38cbc5146100d157005b3661003c57005b005b34801561004a57600080fd5b506100727f000000000000000000000000000000000000000000000000000000000000000081565b6040519081526020015b60405180910390f35b34801561009157600080fd5b506100b97f000000000000000000000000000000000000000000000000000000000000000081565b6040516001600160a01b03909116815260200161007c565b3480156100dd57600080fd5b506100f16100ec3660046102b6565b610101565b604051901515815260200161007c565b60004783111561012457604051633e80302160e01b815260040160405180910390fd5b6001600160a01b03841661014b57604051633a1908e160e01b815260040160405180910390fd5b6040805180820182527f000000000000000000000000000000000000000000000000000000000000000081523360208201528151637ae4eb4f60e11b81526000926001600160a01b037f0000000000000000000000000000000000000000000000000000000000000000169263f5c9d69e926101d59288929083019160c08401919060040161030e565b602060405180830381865afa1580156101f2573d6000803e3d6000fd5b505050506040513d601f19601f82011682018060405250810190610216919061037c565b90508061023657604051636059a95960e11b815260040160405180910390fd5b6000856001600160a01b03168560405160006040518083038185875af1925050503d8060008114610283576040519150601f19603f3d011682016040523d82523d6000602084013e610288565b606091505b50509050806102aa5760405163655df62760e11b815260040160405180910390fd5b50600195945050505050565b60008060008385036101408112156102cd57600080fd5b84356001600160a01b03811681146102e457600080fd5b935060208501359250610100603f198201121561030057600080fd5b506040840190509250925092565b61014081016040808784378083018660005b600281101561033d57838284379183019190830190600101610320565b505050808560c08501375061010082018360005b6002811015610370578151835260209283019290910190600101610351565b50505095945050505050565b60006020828403121561038e57600080fd5b8151801515811461039e57600080fd5b939250505056fea2646970667358221220f0ee184a5001757a0f093e8eb427846eaef66c25f10ee3b72ba34e6564e14fbc64736f6c63430008140033","linkReferences":{}},"methodIdentifiers":{"code()":"24c12bf6","verifier()":"2b7ac3f3","withdraw(address,uint256,(uint256[2],uint256[2][2],uint256[2]))":"de38cbc5"},"id":25}